S00F000070726F6A6563742E737265631E
S21400000018F09FE518F09FE518F09FE518F09FE5BB
S21400001018F09FE518F09FE518F09FE518F09FE5AB
S2140000204C0E0000500E0000540E0000580E00004B
S2140000305C0E0000A4150000480F0000600E0000D3
S214000040260000EA8C609FE5000056E380402DE91C
S214000050016046E21E00000A7C509FE50000A0E317
S2140000600010A0E30C2015E510E015E5084015E5A6
S21400007002005EE1042082000900000A000054E34A
S2140000800700000A0270A0E102C0A0E10C00BEE872
S2140000900C00ACE80C3067E0030054E10C20A0E153
S2140000A0F9FFFF1A04E015E500005EE30230A01138
S2140000B00300000A0300A3E803C062E00C005EE150
S2140000C0FBFFFF1A016046E2010076E3145085E26A
S2140000D0E3FFFF1A190500EB01000000A4C90400A5
S2140000E03C108FE21600A0E3563412EF000050E3F7
S2140000F0080000BA28209FE51CD09FE5080092E57E
S214000100000050E300D0A01110109FE5040092E517
S214000110000050E300008115C9FFFFEAF8FFFF3F2B
S214000120E8CD040008CF040000D01FE5C4FFFFEAB6
S214000130F8FFFF3F08402DE92C009FE52C309FE597
S214000140033060E0060053E30100008A0840BDE883
S2140001501EFF2FE118309FE5000053E3FAFFFF0A69
S2140001600FE0A0E113FF2FE1F7FFFFEAF0CD040058
S214000170F3CD04000000000008402DE934009FE5A0
S21400018034309FE5033060E04331A0E1A33F83E0D5
S214000190C310B0E10100001A0840BDE81EFF2FE1C1
S2140001A018209FE5000052E3FAFFFF0A0FE0A0E1E7
S2140001B012FF2FE1F7FFFFEAF0CD0400F0CD0400B8
S2140001C00000000010402DE92C409FE50030D4E5EB
S2140001D0000053E30600001AD5FFFFEB1C309FE536
S2140001E0000053E318009F1500F020130130A0E331
S2140001F00030C4E51040BDE81EFF2FE1F0CD04003E
S214000200000000003016000008402DE934309FE55D
S214000210000053E330009F1530109F1500F02013A8
S2140002202C009FE5003090E5000053E30300000A31
S21400023020309FE5000053E30FE0A01113FF2F11BD
S2140002400840BDE8CBFFFFEA0000000030160000C3
S214000250F4CD0400A8C90400000000000030A0E3AC
S214000260203F4FE3503093E5010053E30400000ABB
S2140002700030A0E3203F4FE3503093E50D0053E3FA
S2140002800600001A0C3E0CE3043040E30020A0E316
S214000290002083E50120A0E3042083E51EFF2FE174
S2140002A00030A0E3203F4FE3503093E5020053E3D5
S2140002B00400000A0030A0E3203F4FE3503093E5EF
S2140002C00E0053E30600001A0C3E0CE3043040E335
S2140002D00020A0E3002083E50020E0E3042083E57F
S2140002E01EFF2FE10030A0E3203F4FE3503093E5A0
S2140002F0040053E30400000A0030A0E3203F4FE36D
S214000300503093E5070053E30600001A0C3E0CE35A
S214000310043040E30020A0E3042083E50120A0E3AE
S214000320002083E51EFF2FE10030A0E3203F4FE3CF
S214000330503093E5080053E30400000A0030A0E3C1
S214000340203F4FE3503093E50B0053E30600001ABE
S2140003500C3E0CE3043040E30020A0E3042083E5D9
S2140003600020E0E3002083E51EFF2FE10030A0E33D
S214000370203F4FE3503093E5090053E30600001A90
S2140003800C3E0CE3043040E30120A0E3042083E5A8
S2140003900020E0E3002083E51EFF2FE10030A0E30D
S2140003A0203F4FE3503093E5060053E30600001A63
S2140003B00C3E0CE3043040E30120A0E3002083E57C
S2140003C00020E0E3042083E51EFF2FE10030A0E3D9
S2140003D0203F4FE3503093E5050053E30500001A35
S2140003E00C3E0CE3043040E30120A0E3002083E54C
S2140003F0042083E51EFF2FE10030A0E3203F4FE3FB
S214000400503093E50A0053E30C3E0CE3043040E31F
S2140004100020E0030020A013002083E5042083E5ED
S2140004201EFF2FE1F0472DE90C419FE50050A0E3A9
S2140004300590A0E1D57904E35C7343E33B670CE3E6
S2140004401A6948E30C8E0CE3048040E358A088E267
S214000450808088E26C0300EBA03F80E0013003E27E
S214000460A00F43E0800080E08000A0E1030040E2AF
S214000470000084E5049084E5630300EB9730C2E057
S214000480C03FA0E1423363E0032183E0023363E030
S214000490000063E0080004E55B0300EB9620C3E081
S2140004A0003083E0C02FA0E1C33362E0032263E0A4
S2140004B0023263E0003063E0043004E5081014E51F
S2140004C00A20A0E10510A2E7043082E50820A0E19A
S2140004D00510A2E7043082E5104084E2085085E269
S2140004E0280055E3DAFFFF1A0C3E0CE3043040E325
S2140004F04A10A0E3A81083E5D920A0E3AC2083E54A
S2140005000000A0E3000083E5B81083E5BC2083E587
S214000510C01083E5C42083E5EA10A0E3C81083E595
S214000520CC2083E5040083E5D81083E5DC2083E552
S214000530E01083E5E42083E5F087BDE81CCE0400E8
S214000540F04F2DE90CD04DE2BC629FE5084086E2F4
S2140005500070A0E30C8E0CE3048040E3582088E291
S21400056004208DE580B088E23DA100E33B970CE3D4
S2140005701A9948E3E83098E5030153E30500001AAA
S214000580082014E50B30A0E10720A3E7042014E5BB
S214000590042083E5060000EAE83098E5320353E3DA
S2140005A00820140504309D050720A3070420140521
S2140005B0042083050450A0E1083014E5013043E22E
S2140005C00A0053E10B00009A083096E5003063E21B
S2140005D0083086E50C0300EB9920C3E0003083E08A
S2140005E0C02FA0E1C33362E0032263E0023263E07F
S2140005F0000063E0040004E5082015E5083096E5F1
S214000600033082E0083005E5042015E50C3096E559
S214000610033082E0043005E5106086E2104084E294
S214000620087087E2280057E3D1FFFF1A0C3E0CE360
S214000630043040E3E83093E5030153E30A00001A70
S2140006400C3E0CE3043040E3A82093E5B82083E595
S214000650AC2093E5BC2083E5C82093E5D82083E54D
S214000660CC2093E5DC2083E50E0000EA0C3E0CE38C
S214000670043040E3E83093E5320353E30900001A00
S2140006800C3E0CE3043040E3A82093E5C02083E54D
S214000690AC2093E5C42083E5C82093E5E02083E5FD
S2140006A0CC2093E5E42083E50C3E0CE3043040E3E5
S2140006B0AC3093E5000053E3020000DA152083E235
S2140006C0EE0052E3090000DA010053E30C3E0CD3BF
S2140006D0043040D3EC2093D5012082D2EC2083D581
S2140006E00C3E0CE3043040E3D920A0E3AC2083E5C5
S2140006F00C3E0CE3043040E3CC3093E5000053E3BB
S214000700020000DA152083E2EE0052E3300000DA41
S214000710010053E30C3E0CD3043040D3F02093D5B5
S214000720012082D2F02083D50C3E0CE3043040E357
S214000730D920A0E3CC2083E5250000EA082081E24A
S214000740022093E7050052E1080000CA070052E1C4
S214000750060000BA038081E00C8098E515A08CE2C4
S2140007600A0058E1010000CA0C0058E1D9C0A0A355
S214000770040052E1080000CA060052E1060000BA72
S214000780032081E00C2092E5158080E2080052E10B
S214000790010000CA000052E1D900A0A3103083E295
S2140007A0500053E3E4FFFF1A0C3E0CE3043040E332
S2140007B0ACC083E5CC0083E5002093E502C08CE066
S2140007C0ACC083E5042093E5020080E0CC0083E51E
S2140007D00B0000EA0C3E0CE3043040E3A87093E5FF
S2140007E00B5087E2C86093E50B4086E2ACC093E509
S2140007F0CC0093E50030A0E30C1E0CE3041040E3AD
S214000800CDFFFFEA0CD08DE2F08FBDE814CE0400D9
S2140008103233A0E30010A0E37E2E0BE303284CE364
S214000820B210C3E0020053E1FCFFFF1A0331A0E35D
S2140008300010A0E37E2E0BE303204CE3B210C3E0CF
S214000840020053E1FCFFFF1A1EFF2FE10C3E0CE3F3
S214000850043040E3E83093E58000A0E1011583E032
S214000860B02081E11EFF2FE1F8452DE90070A0E1E0
S21400087001A0A0E10080A0E30850A0E1090000EA82
S214000880070084E00610A0E10520A0E1EEFFFFEBE4
S214000890014084E2120054E3F8FFFF1A018088E268
S2140008A0160058E3F885BD080540A0E10A6088E018
S2140008B0F2FFFFEAF8402DE90C3E0CE3043040E37B
S2140008C0E83093E5030153E32300001A0040A0E359
S2140008D028519FE50470A0E1046085E0040095E7D8
S2140008E0041096E50720A0E1D7FFFFEB050094E78C
S2140008F0010080E2041096E50720A0E1D2FFFFEB9E
S214000900041096E5040095E7011081E20720A0E1B7
S214000910CDFFFFEB050094E7041096E5010080E2AA
S214000920011081E20720A0E1C7FFFFEB084084E248
S214000930280054E3E7FFFF1A0C4E0CE3044040E3A4
S214000940B80094E5BC1094E5C6FFFFEBD80094E52C
S214000950DC1094E5C3FFFFEBF880BDE80C3E0CE32B
S214000960043040E3E83093E5320353E3F880BD18E3
S2140009700040A0E388509FE50470A0E1046085E095
S214000980040095E7041096E50720A0E1AEFFFFEB14
S214000990050094E7010080E2041096E50720A0E138
S2140009A0A9FFFFEB041096E5040095E7011081E22D
S2140009B00720A0E1A4FFFFEB050094E7041096E5EE
S2140009C0010080E2011081E20720A0E19EFFFFEB1C
S2140009D0084084E2280054E3E7FFFF1A0C4E0CE3BD
S2140009E0044040E3C00094E5C41094E59DFFFFEB8F
S2140009F0E00094E5E41094E59AFFFFEBF880BDE88C
S214000A008CCE040064CE0400F84F2DE900B0A0E1BF
S214000A100190A0E150609FE50080A0E334AE06E3BD
S214000A2002A040E30A0000EA0400A0E10710A0E1EB
S214000A30F220F5E184FFFFEB014084E2050056E179
S214000A40F8FFFF1A018088E2246086E2160058E369
S214000A50F88FBD08885188E005518AE0025045E2CB
S214000A600B40A0E1097088E0EEFFFFEA566E020038
S214000A70FF3F03E3203F4FE30120A0E3DF2F03E522
S214000A80D33F13E5010013E31EFF2F01FF2F03E3FF
S214000A90202F4FE3D33F12E5010013E3FCFFFF1ABC
S214000AA01EFF2FE1FF3F03E3203F4FE30120A0E3BB
S214000AB0DF2F03E5D33F13E5010013E31EFF2F01ED
S214000AC0FF2F03E3202F4FE3D33F12E5010013E38C
S214000AD0FCFFFF1A1EFF2FE1F0412DE90060A0E3A6
S214000AE04C7107E3027040E30680A0E1090000EACB
S214000AF00400A0E10610A0E1F220F5E152FFFFEBB2
S214000B00014084E2050D54E3F8FFFF1A016086E217
S214000B10F00056E30400000A065186E0855387E09D
S214000B20025045E20840A0E1F0FFFFEADCFFFFEBE1
S214000B30B0390CE3043040E3003093E5042093E53D
S214000B400C3E0CE3043040E3E82083E5F081BDE88A
S214000B50F0412DE90060A0E3347601E3007040E345
S214000B600680A0E1090000EA0400A0E10610A0E16A
S214000B70F220F5E134FFFFEB014084E2050D54E37B
S214000B80F8FFFF1A016086E2F00056E30400000A50
S214000B90065186E0855387E0025045E20840A0E112
S214000BA0F0FFFFEABEFFFFEBB0390CE3043040E392
S214000BB0003093E5042093E50C3E0CE3043040E35C
S214000BC0E82083E5F081BDE8003090E5002091E55F
S214000BD0002080E5003081E51EFF2FE1F04F2DE973
S214000BE014D04DE20C008DE508108DE504208DE54F
S214000BF000308DE5F8A3DDE1033061E0000053E34B
S214000C00003063B2022060E0C28F22E0C28F48E06C
S214000C10080053E10080A0D30180A0C3000058E381
S214000C200500000A0C008DE208108DE2E5FFFFEBE0
S214000C3004008DE20D10A0E1E2FFFFEB04309DE51D
S214000C400C209DE5030052E1050000DA0C008DE261
S214000C5004108DE2DBFFFFEB08008DE20D10A0E133
S214000C60D8FFFFEB04309DE50C509DE5039065E052
S214000C7000209DE508609DE5027066E0000057E3F1
S214000C80007067B2A94F89E0C440A0E1004064E26A
S214000C90060052E100B0E0D301B0A0C3050053E166
S214000CA00D0000DA000058E30600A0110510A011A0
S214000CB00500A0010610A0010A20A0E1E2FEFFEB5D
S214000CC0074094E00B60865004406950015085E26E
S214000CD004309DE5050053E1F1FFFFCA14D08DE214
S214000CE0F08FBDE8F0412DE908D04DE20060A0E1AC
S214000CF00180A0E10240A0E1F072DDE1035080E057
S214000D0000708DE50520A0E10130A0E1B2FFFFEB09
S214000D10044088E000708DE50600A0E10810A0E120
S214000D200620A0E10430A0E1ABFFFFEB00708DE5EC
S214000D300500A0E10810A0E10520A0E10430A0E134
S214000D40A5FFFFEB00708DE50600A0E10410A0E112
S214000D500520A0E10430A0E19FFFFFEB08D08DE264
S214000D60F081BDE8F0402DE90CD04DE20040A0E354
S214000D70BC509FE50070E0E3046085E0040095E762
S214000D80041096E50720A0E1AFFEFFEB050094E710
S214000D90010080E2041096E50720A0E1AAFEFFEB22
S214000DA0041096E5040095E7011081E20720A0E113
S214000DB0A5FEFFEB050094E7041096E5010080E22F
S214000DC0011081E20720A0E19FFEFFEB104084E2C5
S214000DD0500054E3E7FFFF1A0C4E0CE3044040E3D8
S214000DE0A80094E5AC1094E50050E0E300508DE5D3
S214000DF01520A0E30B30A0E3B9FFFFEBC80094E595
S214000E00CC1094E500508DE51520A0E30B30A0E350
S214000E10B3FFFFEBA80094E5AC1094E5F9FEFFEBFA
S214000E20C80094E5CC1094E5F6FEFFEB0CD08DE2FE
S214000E30F080BDE814CE04000030A0E3203F4FE36E
S214000E400F20A0E3582083E51EFF2FE1FEFFFFEAF8
S214000E50FEFFFFEAFEFFFFEAFEFFFFEAFEFFFFEAF5
S214000E60FEFFFFEAD330A0E303F029E11EFF2FE1E7
S214000E70D230A0E303F029E10730E0E303D0A0E19D
S214000E80D330A0E303F029E11EFF2FE15330A0E3A7
S214000E9003F029E11EFF2FE104402DE5C031A0E15B
S214000EA00330C3E34B3B43E21F2000E200C313E5DD
S214000EB00140A0E314228CE1002303E54A0B40E244
S214000EC00010C0E51000BDE81EFF2FE108402DE928
S214000ED04900A0E30110A0E3EEFFFFEB132AE0E3D6
S214000EE0FF3F0FE3FB3E02E50130A0E3FF3E02E5D5
S214000EF0122AE0E3FF3F02E50880BDE80030A0E3E9
S214000F00203F4FE35C2093E55C2083E5010012E37D
S214000F100400000A0C3E0CE3043040E30120A0E38A
S214000F20F420C3E51EFF2FE1020012E31EFF2F117F
S214000F30040012E30C3E0C13043040130120A013EF
S214000F40F420C3151EFF2FE104E04EE20F502DE9FA
S214000F50133AE0E3F33E13E5490053E30400001AB6
S214000F60E5FFFFEB4920A0E3133AE0E3EF2E03E5AD
S214000F700F90FDE8FEFFFFEAC90480E28123C0E788
S214000F801EFF2FE1F8452DE9B5FFFFEBB7FFFFEB9E
S214000F90CDFFFFEBA7FFFFEBBBFFFFEB20FDFFEB5B
S214000FA0B0590CE3045040E3003095E53223A0E34B
S214000FB0042083E5BAFEFFEB003095E5003093E5AC
S214000FC00C4E0CE3044040E3E83084E50FFEFFEBF4
S214000FD0003095E50321A0E3042083E5043093E583
S214000FE0E83084E509FEFFEB0030A0E3203F4FE346
S214000FF0402093E5403093E50030A0E3F430C4E5AC
S2140010000C4E0CE3044040E3D0FEFFEBF430D4E596
S214001010000053E3FBFFFF0AFCFDFFEB0C3E0CE376
S214001020043040E30020A0E3EC2083E5F02083E5D5
S21400103003A0A0E30640A0E35360A0E30480A0E37F
S2140010400350A0E1B0790CE3047040E318FEFFEB18
S21400105043FFFFEB80FCFFEB38FDFFEB0A00A0E14F
S2140010600410A0E10620A0E1C2FFFFEB0800A0E10B
S2140010700410A0E14320A0E3BEFFFFEB0500A0E3C1
S2140010800410A0E14F20A0E3BAFFFFEB0400A0E1AC
S2140010900410A0E15220A0E3B6FFFFEB0700A0E398
S2140010A00410A0E14520A0E3B2FFFFEB0800A0E398
S2140010B00410A0E13A20A0E3AEFFFFEBEC2095E59C
S2140010C0302082E20900A0E30410A0E17220EFE6DF
S2140010D0A8FFFFEB3F00A0E30410A0E10620A0E17C
S2140010E0A4FFFFEB4000A0E30410A0E14320A0E330
S2140010F0A0FFFFEB4100A0E30410A0E14F20A0E317
S2140011009CFFFFEB4200A0E30410A0E15220A0E306
S21400111098FFFFEB4300A0E30410A0E14520A0E306
S21400112094FFFFEB4400A0E30410A0E13A20A0E304
S21400113090FFFFEBF02095E5302082E24500A0E32B
S2140011400410A0E17220EFE68AFFFFEBEC3095E595
S214001150050053E30200000AF03095E5050053E36E
S2140011600800001A0030A0E3F430C5E5EC3085E551
S214001170F03085E557FEFFEBF430D5E5000053E38D
S214001180FBFFFF0AA1FDFFEB38FEFFEB003097E503
S214001190043093E5E83085E5ABFFFFEA0010A0E1F8
S2140011A00000A0E308402DE90020A0E10030A0E107
S2140011B02C0000EB0840BDE81EFF2FE108402DE99B
S2140011C00010A0E30040A0E1630000EB18309FE5AC
S2140011D0000093E53C3090E5000053E30FE0A011DB
S2140011E013FF2F110400A0E1E70000EB4CC9040038
S2140011F010309FE5003093E50020A0E3A80083E5CB
S214001200AC2083E51EFF2FE1B8C9040004402DE59D
S21400121044309FE500C093E540409FE5A8209CE54C
S214001220920404E0AC109CE534309FE5934124E042
S214001230920381E00120A0E3002092E0011084E008
S2140012400030A0E30130A3E0A8208CE5AC308CE5AC
S2140012500201C3E31000BDE81EFF2FE1B8C9040079
S2140012602DF451582D7F954CE4C09FE5F0412DE9B3
S21400127000409CE548C194E500005CE353CF84023F
S21400128004509CE548C184051F0055E310D04DE28C
S2140012900060A0E1150000DAB8009FE5000050E30A
S2140012A00100001A0000E0E3180000EA190EA0E3AF
S2140012B00C108DE508208DE504308DE500F020E368
S2140012C000C050E20C109DE508209DE504309DE529
S2140012D0F3FFFF0A485194E50000A0E304008CE504
S2140012E000508CE548C184E588018CE58C018CE5CE
S2140012F0000056E304409CE50700001A023084E232
S214001300014084E203118CE704408CE50000A0E372
S21400131010D08DE2F041BDE81EFF2FE10100A0E3F2
S2140013201004A0E104818CE0020056E388719CE57D
S214001330083188E58C319C05007087E10000830148
S2140013400850A0E1882088E588718CE58C018C0522
S214001350E9FFFFEA4CC9040000000000F04F2DE949
S21400136068319FE5003093E514D04DE204308DE5FA
S214001370523F83E208008DE50C308DE50170A0E158
S2140013800180A0E304309DE5486193E5000056E344
S2140013900CB09DE53300000A045096E5014055E286
S2140013A088A086521F50855205518A500700005A61
S2140013B0290000EA003095E5070053E10500000A21
S2140013C0014044E2010074E3045045E22200000AB2
S2140013D0000057E3F6FFFF1A043096E505206AE0A2
S2140013E0013043E2022086E0040053E1783012E543
S2140013F00010A0130440860578100215000053E381
S214001400EEFFFF0A1824A0E1881196E5010012E11C
S214001410049096E51600000A8C1196E5010012E18C
S2140014201600001A08009DE5801015E50FE0A0E103
S21400143013FF2FE1043096E5090053E1D0FFFF1AB1
S21400144000309BE5060053E1CDFFFF1A014044E261
S214001450010074E3045045E2DCFFFF1A70109FE5BC
S214001460000051E30900001A14D08DE2F04FBDE8E9
S2140014701EFF2FE10FE0A0E113FF2FE1ECFFFFEAD4
S214001480800015E50FE0A0E113FF2FE1E8FFFFEA7B
S214001490043096E5000053E3003096E50800001A95
S2140014A0000053E30600000A0600A0E100308BE5CA
S2140014B000F020E300609BE5000056E3B5FFFF1A4E
S2140014C0E8FFFFEA06B0A0E10360A0E1F9FFFFEA4B
S2140014D04CC904000000000008402DE910309FE5CC
S2140014E0000053E30C009F152BFFFF1B0840BDE8D0
S2140014F01EFF2FE174C90400FC14000038402DE9DB
S21400150030509FE530409FE5044065E04441B0E13F
S214001510045185100400000A043035E50FE0A0E110
S21400152013FF2FE1014054E2FAFFFF1A102D01EBE2
S2140015303840BDE81EFF2FE18CC9040090C90400A6
S21400154008402DE9170000EB30309FE5000053E31C
S214001550000093150300A00124309FE5000053E32C
S214001560001093150310A0010020A0E384FEFFEBFB
S21400157010309FE5000053E30FFFFF1BFEFFFFEA5E
S2140015800000000000000000BC11000004E02DE593
S2140015901800A0E304109FE5563412EFFEFFFFEAA2
S2140015A026000200FEFFFFEA70402DE96C509FE522
S2140015B06C609FE5066065E04661B0E10450451248
S2140015C00040A0130500000A0430B5E5014084E29F
S2140015D00FE0A0E113FF2FE1040056E1F9FFFF1A28
S2140015E040509FE540609FE5066065E0D82C01EB23
S2140015F04661B0E1045045120040A0130500000A01
S2140016000430B5E5014084E20FE0A0E113FF2FE1CE
S214001610040056E1F9FFFF1A7040BDE81EFF2FE1F7
S2140016206CC904006CC904006CC9040074C90400C9
S20800163000000000B1
S21400163400000000000000000000000000000000A1
S2140016440000000000000000000000000000000091
S2140016540000000000000000000000000000000081
S2140016640000000000000000000000000000000071
S21400E0F4000000000000000000000000FFFFFFFF1B
S21400E104FFFFFFFFFFFFFFFFFFFFFFFFFFFFFFFF16
S21400E114FFFFFFFFFFFFFFFFFFFF00000000000000
S21400E12400000000000000000000000000000000E6
S21400E13400000000000000000000000000000000D6
S21400E14400000000000000000000000000000000C6
S21400E15400000000000000000000000000000000B6
S21400E16400000000000000000000000000000000A6
S21400E1740000000000000000000000000000000096
S21400E1840000000000000000000000000000000086
S21400E1940000000000000000000000000000000076
S21400E1A40000000000000000000000000000000066
S21400E1B40000000000000000000000000000000056
S21400E1C40000000000000000000000000000000046
S21400E1D40000000000000000000000000000000036
S21400E1E40000000000000000000000000000000026
S21400E1F40000000000000000000000000000FFFF18
S21400E204FFFFFFFFFFFFFFFFFFFFFFFFFFFFFFFF15
S21400E214FFFFFFFFFFFFFFFFFFFFFFFFFFFFFFFF05
S21400E224FFFFFFFFFFFFFFFF0000000000000000ED
S21400E23400000000000000000000000000000000D5
S21400E24400000000000000000000000000000000C5
S21400E25400000000000000000000000000000000B5
S21400E26400000000000000000000000000000000A5
S21400E2740000000000000000000000000000000095
S21400E2840000000000000000000000000000000085
S21400E2940000000000000000000000000000000075
S21400E2A40000000000000000000000000000000065
S21400E2B40000000000000000000000000000000055
S21400E2C40000000000000000000000000000000045
S21400E2D40000000000000000000000000000000035
S21400E2E40000000000000000000000000000000025
S21400E2F40000000000000000000000000000000015
S21400E3040000000000000000000000000000000004
S21400E31400000000000000000000000000000000F4
S21400E32400000000000000000000000000000000E4
S21400E33400000000000000000000000000000000D4
S21400E34400000000000000000000000000000000C4
S21400E35400000000000000000000000000000000B4
S21400E36400000000000000000000000000000000A4
S21400E374000000000000000000000000FFFFFFFF98
S21400E384FFFFFFFFFFFFFFFFFFFFFFFFFFFFFFFF94
S21400E394FFFFFFFFFFFFFFFFFFFF0000000000007E
S21400E3A40000000000000000000000000000000064
S21400E3B40000000000000000000000000000000054
S21400E3C40000000000000000000000000000000044
S21400E3D40000000000000000000000000000000034
S21400E3E40000000000000000000000000000000024
S21400E3F40000000000000000000000000000000014
S21400E4040000000000000000000000000000000003
S21400E41400000000000000000000000000000000F3
S21400E42400000000000000000000000000000000E3
S21400E43400000000000000000000000000000000D3
S21400E44400000000000000000000000000000000C3
S21400E45400000000000000000000000000000000B3
S21400E46400000000000000000000000000000000A3
S21400E4740000000000000000000000000000FFFF95
S21400E484FFFFFFFFFFFFFFFFFFFFFFFFFFFFFFFF93
S21400E494FFFFFFFFFFFFFFFFFFFFFFFFFFFFFFFF83
S21400E4A4FFFFFFFFFFFFFFFF00000000000000006B
S21400E4B40000000000000000000000000000000053
S21400E4C40000000000000000000000000000000043
S21400E4D40000000000000000000000000000000033
S21400E4E40000000000000000000000000000000023
S21400E4F40000000000000000000000000000000013
S21400E5040000000000000000000000000000000002
S21400E51400000000000000000000000000000000F2
S21400E52400000000000000000000000000000000E2
S21400E53400000000000000000000000000000000D2
S21400E54400000000000000000000000000000000C2
S21400E55400000000000000000000000000000000B2
S21400E56400000000000000000000000000000000A2
S21400E5740000000000000000000000000000000092
S21400E5840000000000000000000000000000000082
S21400E5940000000000000000000000000000000072
S21400E5A40000000000000000000000000000000062
S21400E5B40000000000000000000000000000000052
S21400E5C40000000000000000000000000000000042
S21400E5D40000000000000000000000000000000032
S21400E5E40000000000000000000000000000000022
S21400E5F4000000000000000000000000FFFFFFFF16
S21400E604FFFFFFFFFFFFFFFFFFFFFFFFFFFFFFFF11
S21400E614FFFFFFFFFFFFFFFFFFFF000000000000FB
S21400E62400000000000000000000000000000000E1
S21400E63400000000000000000000000000000000D1
S21400E64400000000000000000000000000000000C1
S21400E65400000000000000000000000000000000B1
S21400E66400000000000000000000000000000000A1
S21400E6740000000000000000000000000000000091
S21400E6840000000000000000000000000000000081
S21400E6940000000000000000000000000000000071
S21400E6A40000000000000000000000000000000061
S21400E6B40000000000000000000000000000000051
S21400E6C40000000000000000000000000000000041
S21400E6D40000000000000000000000000000000031
S21400E6E40000000000000000000000000000000021
S21400E6F40000000000000000000000000000FFFF13
S21400E704FFFFFFFFFFFFFFFFFFFFFFFFFFFFFFFF10
S21400E714FFFFFFFFFFFFFFFFFFFFFFFFFFFFFFFF00
S21400E724FFFFFFFFFFFFFFFF0000000000000000E8
S21400E73400000000000000000000000000000000D0
S21400E74400000000000000000000000000000000C0
S21400E75400000000000000000000000000000000B0
S21400E76400000000000000000000000000000000A0
S21400E7740000000000000000000000000000000090
S21400E7840000000000000000000000000000000080
S21400E7940000000000000000000000000000000070
S21400E7A40000000000000000000000000000000060
S21400E7B40000000000000000000000000000000050
S21400E7C40000000000000000000000000000000040
S21400E7D40000000000000000000000000000000030
S21400E7E40000000000000000000000000000000020
S21400E7F40000000000000000000000000000000010
S21400E80400000000000000000000000000000000FF
S21400E81400000000000000000000000000000000EF
S21400E82400000000000000000000000000000000DF
S21400E83400000000000000000000000000000000CF
S21400E84400000000000000000000000000000000BF
S21400E85400000000000000000000000000000000AF
S21400E864000000000000000000000000000000009F
S21400E874000000000000FFFFFFFFFFFFFFFFFFFF99
S21400E884FFFF000000000000000000000000000081
S21400E89400000000FFFFFFFFFFFFFFFFFFFFFFFF7B
S21400E8A4000000000000000000000000000000005F
S21400E8B4000000000000000000000000000000004F
S21400E8C4000000000000000000000000000000003F
S21400E8D4000000000000000000000000000000002F
S21400E8E4000000000000000000000000000000001F
S21400E8F4000000000000000000000000000000000F
S21400E90400000000000000000000000000000000FE
S21400E91400000000000000000000000000000000EE
S21400E92400000000000000000000000000000000DE
S21400E93400000000000000000000000000000000CE
S21400E94400000000000000000000000000000000BE
S21400E95400000000000000000000000000000000AE
S21400E964000000000000000000000000000000009E
S21400E9740000000000000000000000000000FFFF90
S21400E984FFFFFFFFFFFFFFFFFFFF00000000000088
S21400E994000000000000000000000000000000006E
S21400E9A40000FFFFFFFFFFFFFFFFFFFFFFFF00006A
S21400E9B4000000000000000000000000000000004E
S21400E9C4000000000000000000000000000000003E
S21400E9D4000000000000000000000000000000002E
S21400E9E4000000000000000000000000000000001E
S21400E9F4000000000000000000000000000000000E
S21400EA0400000000000000000000000000000000FD
S21400EA1400000000000000000000000000000000ED
S21400EA2400000000000000000000000000000000DD
S21400EA3400000000000000000000000000000000CD
S21400EA4400000000000000000000000000000000BD
S21400EA5400000000000000000000000000000000AD
S21400EA64000000000000000000000000000000009D
S21400EA74000000000000000000000000000000008D
S21400EA84000000000000000000000000000000007D
S21400EA94000000000000000000000000000000006D
S21400EAA4000000000000000000000000000000005D
S21400EAB4000000000000000000000000000000004D
S21400EAC4000000000000000000000000000000003D
S21400EAD4000000000000000000000000000000002D
S21400EAE4000000000000000000000000000000001D
S21400EAF4000000000000FFFFFFFFFFFFFFFFFFFF17
S21400EB04FFFF0000000000000000000000000000FE
S21400EB1400000000FFFFFFFFFFFFFFFFFFFFFFFFF8
S21400EB2400000000000000000000000000000000DC
S21400EB3400000000000000000000000000000000CC
S21400EB4400000000000000000000000000000000BC
S21400EB5400000000000000000000000000000000AC
S21400EB64000000000000000000000000000000009C
S21400EB74000000000000000000000000000000008C
S21400EB84000000000000000000000000000000007C
S21400EB94000000000000000000000000000000006C
S21400EBA4000000000000000000000000000000005C
S21400EBB4000000000000000000000000000000004C
S21400EBC4000000000000000000000000000000003C
S21400EBD4000000000000000000000000000000002C
S21400EBE4000000000000000000000000000000001C
S21400EBF40000000000000000000000000000FFFF0E
S21400EC04FFFFFFFFFFFFFFFFFFFF00000000000005
S21400EC1400000000000000000000000000000000EB
S21400EC240000FFFFFFFFFFFFFFFFFFFFFFFF0000E7
S21400EC3400000000000000000000000000000000CB
S21400EC4400000000000000000000000000000000BB
S21400EC5400000000000000000000000000000000AB
S21400EC64000000000000000000000000000000009B
S21400EC74000000000000000000000000000000008B
S21400EC84000000000000000000000000000000007B
S21400EC94000000000000000000000000000000006B
S21400ECA4000000000000000000000000000000005B
S21400ECB4000000000000000000000000000000004B
S21400ECC4000000000000000000000000000000003B
S21400ECD4000000000000000000000000000000002B
S21400ECE4000000000000000000000000000000001B
S21400ECF4000000000000000000000000000000000B
S21400ED0400000000000000000000000000000000FA
S21400ED1400000000000000000000000000000000EA
S21400ED2400000000000000000000000000000000DA
S21400ED3400000000000000000000000000000000CA
S21400ED4400000000000000000000000000000000BA
S21400ED5400000000000000000000000000000000AA
S21400ED64000000000000000000000000000000009A
S21400ED74000000000000FFFFFFFFFFFFFFFFFFFF94
S21400ED84FFFF00000000000000000000000000007C
S21400ED9400000000FFFFFFFFFFFFFFFFFFFFFFFF76
S21400EDA4000000000000000000000000000000005A
S21400EDB4000000000000000000000000000000004A
S21400EDC4000000000000000000000000000000003A
S21400EDD4000000000000000000000000000000002A
S21400EDE4000000000000000000000000000000001A
S21400EDF4000000000000000000000000000000000A
S21400EE0400000000000000000000000000000000F9
S21400EE1400000000000000000000000000000000E9
S21400EE2400000000000000000000000000000000D9
S21400EE3400000000000000000000000000000000C9
S21400EE4400000000000000000000000000000000B9
S21400EE5400000000000000000000000000000000A9
S21400EE640000000000000000000000000000000099
S21400EE740000000000000000000000000000FFFF8B
S21400EE84FFFFFFFFFFFFFFFFFFFF00000000000083
S21400EE940000000000000000000000000000000069
S21400EEA40000FFFFFFFFFFFFFFFFFFFFFFFF000065
S21400EEB40000000000000000000000000000000049
S21400EEC40000000000000000000000000000000039
S21400EED40000000000000000000000000000000029
S21400EEE40000000000000000000000000000000019
S21400EEF40000000000000000000000000000000009
S21400EF0400000000000000000000000000000000F8
S21400EF1400000000000000000000000000000000E8
S21400EF2400000000000000000000000000000000D8
S21400EF3400000000000000000000000000000000C8
S21400EF4400000000000000000000000000000000B8
S21400EF5400000000000000000000000000000000A8
S21400EF640000000000000000000000000000000098
S21400EF740000000000000000000000000000000088
S21400EF840000000000000000000000000000000078
S21400EF940000000000000000000000000000000068
S21400EFA40000000000000000000000000000000058
S21400EFB40000000000000000000000000000000048
S21400EFC40000000000000000000000000000000038
S21400EFD40000000000000000000000000000000028
S21400EFE40000000000000000000000000000000018
S21400EFF4000000000000FFFFFFFFFFFFFFFFFFFF12
S21400F004FFFF0000000000000000000000000000F9
S21400F01400000000FFFFFFFFFFFFFFFFFFFFFFFFF3
S21400F02400000000000000000000000000000000D7
S21400F03400000000000000000000000000000000C7
S21400F04400000000000000000000000000000000B7
S21400F05400000000000000000000000000000000A7
S21400F0640000000000000000000000000000000097
S21400F0740000000000000000000000000000000087
S21400F0840000000000000000000000000000000077
S21400F0940000000000000000000000000000000067
S21400F0A40000000000000000000000000000000057
S21400F0B40000000000000000000000000000000047
S21400F0C40000000000000000000000000000000037
S21400F0D40000000000000000000000000000000027
S21400F0E40000000000000000000000000000000017
S21400F0F40000000000000000000000000000FFFF09
S21400F104FFFFFFFFFFFFFFFFFFFF00000000000000
S21400F11400000000000000000000000000000000E6
S21400F1240000FFFFFFFFFFFFFFFFFFFFFFFF0000E2
S21400F13400000000000000000000000000000000C6
S21400F14400000000000000000000000000000000B6
S21400F15400000000000000000000000000000000A6
S21400F1640000000000000000000000000000000096
S21400F1740000000000000000000000000000000086
S21400F1840000000000000000000000000000000076
S21400F1940000000000000000000000000000000066
S21400F1A40000000000000000000000000000000056
S21400F1B40000000000000000000000000000000046
S21400F1C40000000000000000000000000000000036
S21400F1D40000000000000000000000000000000026
S21400F1E40000000000000000000000000000000016
S21400F1F40000000000000000000000000000000006
S21400F20400000000000000000000000000000000F5
S21400F21400000000000000000000000000000000E5
S21400F22400000000000000000000000000000000D5
S21400F23400000000000000000000000000000000C5
S21400F24400000000000000000000000000000000B5
S21400F25400000000000000000000000000000000A5
S21400F2640000000000000000000000000000000095
S21400F274000000000000FFFFFFFFFFFFFFFFFFFF8F
S21400F284FFFF000000000000000000000000000077
S21400F29400000000FFFFFFFFFFFFFFFFFFFFFFFF71
S21400F2A40000000000000000000000000000000055
S21400F2B40000000000000000000000000000000045
S21400F2C40000000000000000000000000000000035
S21400F2D40000000000000000000000000000000025
S21400F2E40000000000000000000000000000000015
S21400F2F40000000000000000000000000000000005
S21400F30400000000000000000000000000000000F4
S21400F31400000000000000000000000000000000E4
S21400F32400000000000000000000000000000000D4
S21400F33400000000000000000000000000000000C4
S21400F34400000000000000000000000000000000B4
S21400F35400000000000000000000000000000000A4
S21400F3640000000000000000000000000000000094
S21400F3740000000000000000000000000000FFFF86
S21400F384FFFFFFFFFFFFFFFFFFFF0000000000007E
S21400F3940000000000000000000000000000000064
S21400F3A40000FFFFFFFFFFFFFFFFFFFFFFFF000060
S21400F3B40000000000000000000000000000000044
S21400F3C40000000000000000000000000000000034
S21400F3D40000000000000000000000000000000024
S21400F3E40000000000000000000000000000000014
S21400F3F40000000000000000000000000000000004
S21400F40400000000000000000000000000000000F3
S21400F41400000000000000000000000000000000E3
S21400F42400000000000000000000000000000000D3
S21400F43400000000000000000000000000000000C3
S21400F44400000000000000000000000000000000B3
S21400F45400000000000000000000000000000000A3
S21400F4640000000000000000000000000000000093
S21400F4740000000000000000000000000000000083
S21400F4840000000000000000000000000000000073
S21400F4940000000000000000000000000000000063
S21400F4A40000000000000000000000000000000053
S21400F4B40000000000000000000000000000000043
S21400F4C40000000000000000000000000000000033
S21400F4D40000000000000000000000000000000023
S21400F4E40000000000000000000000000000000013
S21400F4F4000000000000FFFFFFFFFFFFFFFFFFFF0D
S21400F504FFFF0000000000000000000000000000F4
S21400F51400000000FFFFFFFFFFFFFFFFFFFFFFFFEE
S21400F52400000000000000000000000000000000D2
S21400F53400000000000000000000000000000000C2
S21400F54400000000000000000000000000000000B2
S21400F55400000000000000000000000000000000A2
S21400F5640000000000000000000000000000000092
S21400F5740000000000000000000000000000000082
S21400F5840000000000000000000000000000000072
S21400F5940000000000000000000000000000000062
S21400F5A40000000000000000000000000000000052
S21400F5B40000000000000000000000000000000042
S21400F5C40000000000000000000000000000000032
S21400F5D40000000000000000000000000000000022
S21400F5E40000000000000000000000000000000012
S21400F5F40000000000000000000000000000FFFF04
S21400F604FFFFFFFFFFFFFFFFFFFF000000000000FB
S21400F61400000000000000000000000000000000E1
S21400F6240000FFFFFFFFFFFFFFFFFFFFFFFF0000DD
S21400F63400000000000000000000000000000000C1
S21400F64400000000000000000000000000000000B1
S21400F65400000000000000000000000000000000A1
S21400F6640000000000000000000000000000000091
S21400F6740000000000000000000000000000000081
S21400F6840000000000000000000000000000000071
S21400F6940000000000000000000000000000000061
S21400F6A40000000000000000000000000000000051
S21400F6B40000000000000000000000000000000041
S21400F6C40000000000000000000000000000000031
S21400F6D40000000000000000000000000000000021
S21400F6E40000000000000000000000000000000011
S21400F6F40000000000000000000000000000000001
S21400F70400000000000000000000000000000000F0
S21400F71400000000000000000000000000000000E0
S21400F72400000000000000000000000000000000D0
S21400F73400000000000000000000000000000000C0
S21400F74400000000000000000000000000000000B0
S21400F75400000000000000000000000000000000A0
S21400F7640000000000000000000000000000000090
S21400F774000000000000FFFFFFFFFFFFFFFFFFFF8A
S21400F784FFFF000000000000000000000000000072
S21400F7940000000000000000000000000000000060
S21400F7A4000000000000000000000000FFFFFFFF54
S21400F7B4FFFFFFFFFFFFFFFFFFFFFFFFFFFFFFFF50
S21400F7C4FFFFFFFFFFFFFFFFFFFF0000000000003A
S21400F7D40000000000000000000000000000000020
S21400F7E40000FFFFFFFFFFFFFFFFFFFFFFFFFFFF1E
S21400F7F4FFFFFFFFFFFFFFFFFFFF0000000000000A
S21400F80400000000000000000000000000000000EF
S21400F8140000FFFFFFFFFFFFFFFFFFFFFFFFFFFFED
S21400F824FFFFFFFFFFFFFFFFFFFF000000000000D9
S21400F834000000000000000000000000FFFFFFFFC3
S21400F844FFFFFFFFFFFFFFFFFFFFFFFFFFFFFFFFBF
S21400F854FFFFFFFF000000000000000000000000A3
S21400F864000000000000000000000000000000008F
S21400F8740000000000000000000000000000FFFF81
S21400F884FFFFFFFFFFFFFFFFFFFF00000000000079
S21400F894000000000000000000000000000000005F
S21400F8A40000FFFFFFFFFFFFFFFFFFFFFFFF00005B
S21400F8B4000000000000000000000000000000003F
S21400F8C4FFFFFFFFFFFFFFFFFFFFFFFFFFFFFFFF3F
S21400F8D4FFFFFFFFFFFFFFFF000000000000000027
S21400F8E4000000000000000000000000000000000F
S21400F8F4FFFFFFFFFFFFFFFFFFFFFFFFFFFFFFFF0F
S21400F904FFFFFFFFFFFFFFFF0000000000000000F6
S21400F91400000000000000000000FFFFFFFFFFFFE4
S21400F924FFFFFFFFFFFFFFFFFFFFFFFFFFFFFFFFDE
S21400F934FFFF0000000000000000000000000000C0
S21400F94400000000FFFFFFFFFFFFFFFFFFFFFFFFBA
S21400F954FFFFFFFFFFFFFFFFFFFFFFFF00000000AA
S21400F964000000000000000000000000000000008E
S21400F974000000000000000000000000000000007E
S21400F984000000000000000000000000000000006E
S21400F994000000000000000000000000000000005E
S21400F9A4000000000000000000000000000000004E
S21400F9B4000000000000000000000000000000003E
S21400F9C4000000000000000000000000000000002E
S21400F9D4000000000000000000000000000000001E
S21400F9E4000000000000000000000000000000000E
S21400F9F4000000000000FFFFFFFFFFFFFFFFFFFF08
S21400FA04FFFF0000000000000000000000000000EF
S21400FA1400000000000000000000000000000000DD
S21400FA24000000000000000000000000FFFFFFFFD1
S21400FA34FFFFFFFFFFFFFFFFFFFFFFFFFFFFFFFFCD
S21400FA44FFFFFFFFFFFFFFFFFFFF000000000000B7
S21400FA54000000000000000000000000000000009D
S21400FA640000FFFFFFFFFFFFFFFFFFFFFFFFFFFF9B
S21400FA74FFFFFFFFFFFFFFFFFFFF00000000000087
S21400FA84000000000000000000000000000000006D
S21400FA940000FFFFFFFFFFFFFFFFFFFFFFFFFFFF6B
S21400FAA4FFFFFFFFFFFFFFFFFFFF00000000000057
S21400FAB4000000000000000000000000FFFFFFFF41
S21400FAC4FFFFFFFFFFFFFFFFFFFFFFFFFFFFFFFF3D
S21400FAD4FFFFFFFF00000000000000000000000021
S21400FAE4000000000000000000000000000000000D
S21400FAF40000000000000000000000000000FFFFFF
S21400FB04FFFFFFFFFFFFFFFFFFFF000000000000F6
S21400FB1400000000000000000000000000000000DC
S21400FB240000FFFFFFFFFFFFFFFFFFFFFFFF0000D8
S21400FB3400000000000000000000000000000000BC
S21400FB44FFFFFFFFFFFFFFFFFFFFFFFFFFFFFFFFBC
S21400FB54FFFFFFFFFFFFFFFF0000000000000000A4
S21400FB64000000000000000000000000000000008C
S21400FB74FFFFFFFFFFFFFFFFFFFFFFFFFFFFFFFF8C
S21400FB84FFFFFFFFFFFFFFFF000000000000000074
S21400FB9400000000000000000000FFFFFFFFFFFF62
S21400FBA4FFFFFFFFFFFFFFFFFFFFFFFFFFFFFFFF5C
S21400FBB4FFFF00000000000000000000000000003E
S21400FBC400000000FFFFFFFFFFFFFFFFFFFFFFFF38
S21400FBD4FFFFFFFFFFFFFFFFFFFFFFFF0000000028
S21400FBE4000000000000000000000000000000000C
S21400FBF400000000000000000000000000000000FC
S21400FC0400000000000000000000000000000000EB
S21400FC1400000000000000000000000000000000DB
S21400FC2400000000000000000000000000000000CB
S21400FC3400000000000000000000000000000000BB
S21400FC4400000000000000000000000000000000AB
S21400FC54000000000000000000000000000000009B
S21400FC64000000000000000000000000000000008B
S21400FC74000000000000FFFFFFFFFFFFFFFFFFFF85
S21400FC84FFFF00000000000000000000000000006D
S21400FC94000000000000000000000000000000005B
S21400FCA4000000000000000000000000FFFFFFFF4F
S21400FCB4FFFFFFFFFFFFFFFFFFFFFFFFFFFFFFFF4B
S21400FCC4FFFFFFFFFFFFFFFFFFFF00000000000035
S21400FCD4000000000000000000000000000000001B
S21400FCE40000FFFFFFFFFFFFFFFFFFFFFFFFFFFF19
S21400FCF4FFFFFFFFFFFFFFFFFFFF00000000000005
S21400FD0400000000000000000000000000000000EA
S21400FD140000FFFFFFFFFFFFFFFFFFFFFFFFFFFFE8
S21400FD24FFFFFFFFFFFFFFFFFFFF000000000000D4
S21400FD34000000000000000000000000FFFFFFFFBE
S21400FD44FFFFFFFFFFFFFFFFFFFFFFFFFFFFFFFFBA
S21400FD54FFFFFFFF0000000000000000000000009E
S21400FD64000000000000000000000000000000008A
S21400FD740000000000000000000000000000FFFF7C
S21400FD84FFFFFFFFFFFFFFFFFFFF00000000000074
S21400FD94000000000000000000000000000000005A
S21400FDA40000FFFFFFFFFFFFFFFFFFFFFFFF000056
S21400FDB4000000000000000000000000000000003A
S21400FDC4FFFFFFFFFFFFFFFFFFFFFFFFFFFFFFFF3A
S21400FDD4FFFFFFFFFFFFFFFF000000000000000022
S21400FDE4000000000000000000000000000000000A
S21400FDF4FFFFFFFFFFFFFFFFFFFFFFFFFFFFFFFF0A
S21400FE04FFFFFFFFFFFFFFFF0000000000000000F1
S21400FE1400000000000000000000FFFFFFFFFFFFDF
S21400FE24FFFFFFFFFFFFFFFFFFFFFFFFFFFFFFFFD9
S21400FE34FFFF0000000000000000000000000000BB
S21400FE4400000000FFFFFFFFFFFFFFFFFFFFFFFFB5
S21400FE54FFFFFFFFFFFFFFFFFFFFFFFF00000000A5
S21400FE640000000000000000000000000000000089
S21400FE740000000000000000000000000000000079
S21400FE840000000000000000000000000000000069
S21400FE940000000000000000000000000000000059
S21400FEA40000000000000000000000000000000049
S21400FEB40000000000000000000000000000000039
S21400FEC40000000000000000000000000000000029
S21400FED40000000000000000000000000000000019
S21400FEE40000000000000000000000000000000009
S21400FEF4000000000000000000000000FFFFFFFFFD
S21400FF04FFFFFFFFFFFFFFFFFFFFFFFFFFFF0000F6
S21400FF1400000000000000000000000000000000D8
S21400FF24000000000000000000000000FFFFFFFFCC
S21400FF34FFFFFFFFFFFFFFFF0000000000000000C0
S21400FF4400000000FFFFFFFFFFFFFFFFFFFFFFFFB4
S21400FF54000000000000000000000000FFFFFFFF9C
S21400FF64FFFFFFFFFFFFFFFF000000000000000090
S21400FF7400000000FFFFFFFFFFFFFFFFFFFFFFFF84
S21400FF84000000000000000000000000FFFFFFFF6C
S21400FF94FFFFFFFFFFFFFFFF000000000000000060
S21400FFA400000000FFFFFFFFFFFFFFFFFFFFFFFF54
S21400FFB4000000000000FFFFFFFFFFFFFFFFFFFF42
S21400FFC4FFFF000000000000000000000000FFFF2C
S21400FFD4FFFFFFFFFFFFFFFFFFFF00000000000022
S21400FFE40000000000000000000000000000000008
S21400FFF40000000000000000000000000000FFFFFA
S214010004FFFFFFFFFFFFFFFFFFFF000000000000F0
S21401001400000000000000000000000000000000D6
S2140100240000FFFFFFFFFFFFFFFFFFFFFFFF0000D2
S21401003400000000000000000000FFFFFFFFFFFFBC
S214010044FFFFFFFFFFFF00000000000000000000AC
S2140100540000FFFFFFFFFFFFFFFFFFFFFFFF0000A2
S21401006400000000000000000000FFFFFFFFFFFF8C
S214010074FFFFFFFFFFFF000000000000000000007C
S2140100840000FFFFFFFFFFFFFFFFFFFFFFFF000072
S21401009400000000FFFFFFFFFFFFFFFFFFFFFFFF62
S2140100A4000000000000000000000000FFFFFFFF4A
S2140100B4FFFFFFFFFFFFFFFF00000000000000003E
S2140100C400000000FFFFFFFFFFFFFFFFFFFFFFFF32
S2140100D4FFFFFFFFFFFF000000000000000000001C
S2140100E40000000000000000000000000000000006
S2140100F400000000000000000000000000000000F6
S21401010400000000000000000000000000000000E5
S21401011400000000000000000000000000000000D5
S21401012400000000000000000000000000000000C5
S21401013400000000000000000000000000000000B5
S21401014400000000000000000000000000000000A5
S2140101540000000000000000000000000000000095
S2140101640000000000000000000000000000000085
S214010174000000000000000000000000FFFFFFFF79
S214010184FFFFFFFFFFFFFFFFFFFFFFFFFFFF000073
S2140101940000000000000000000000000000000055
S2140101A4000000000000000000000000FFFFFFFF49
S2140101B4FFFFFFFFFFFFFFFF00000000000000003D
S2140101C400000000FFFFFFFFFFFFFFFFFFFFFFFF31
S2140101D4000000000000000000000000FFFFFFFF19
S2140101E4FFFFFFFFFFFFFFFF00000000000000000D
S2140101F400000000FFFFFFFFFFFFFFFFFFFFFFFF01
S214010204000000000000000000000000FFFFFFFFE8
S214010214FFFFFFFFFFFFFFFF0000000000000000DC
S21401022400000000FFFFFFFFFFFFFFFFFFFFFFFFD0
S214010234000000000000FFFFFFFFFFFFFFFFFFFFBE
S214010244FFFF000000000000000000000000FFFFA8
S214010254FFFFFFFFFFFFFFFFFFFF0000000000009E
S2140102640000000000000000000000000000000084
S2140102740000000000000000000000000000FFFF76
S214010284FFFFFFFFFFFFFFFFFFFF0000000000006E
S2140102940000000000000000000000000000000054
S2140102A40000FFFFFFFFFFFFFFFFFFFFFFFF000050
S2140102B400000000000000000000FFFFFFFFFFFF3A
S2140102C4FFFFFFFFFFFF000000000000000000002A
S2140102D40000FFFFFFFFFFFFFFFFFFFFFFFF000020
S2140102E400000000000000000000FFFFFFFFFFFF0A
S2140102F4FFFFFFFFFFFF00000000000000000000FA
S2140103040000FFFFFFFFFFFFFFFFFFFFFFFF0000EF
S21401031400000000FFFFFFFFFFFFFFFFFFFFFFFFDF
S214010324000000000000000000000000FFFFFFFFC7
S214010334FFFFFFFFFFFFFFFF0000000000000000BB
S21401034400000000FFFFFFFFFFFFFFFFFFFFFFFFAF
S214010354FFFFFFFFFFFF0000000000000000000099
S2140103640000000000000000000000000000000083
S2140103740000000000000000000000000000000073
S2140103840000000000000000000000000000000063
S2140103940000000000000000000000000000000053
S2140103A40000000000000000000000000000000043
S2140103B40000000000000000000000000000000033
S2140103C40000000000000000000000000000000023
S2140103D40000000000000000000000000000000013
S2140103E40000000000000000000000000000000003
S2140103F4000000000000000000000000FFFFFFFFF7
S214010404FFFFFFFFFFFFFFFFFFFFFFFFFFFF0000F0
S21401041400000000000000000000000000000000D2
S214010424000000000000000000000000FFFFFFFFC6
S214010434FFFFFFFFFFFFFFFF0000000000000000BA
S21401044400000000FFFFFFFFFFFFFFFFFFFFFFFFAE
S214010454000000000000000000000000FFFFFFFF96
S214010464FFFFFFFFFFFFFFFF00000000000000008A
S21401047400000000FFFFFFFFFFFFFFFFFFFFFFFF7E
S214010484000000000000000000000000FFFFFFFF66
S214010494FFFFFFFFFFFFFFFF00000000000000005A
S2140104A400000000FFFFFFFFFFFFFFFFFFFFFFFF4E
S2140104B4000000000000FFFFFFFFFFFFFFFFFFFF3C
S2140104C4FFFF000000000000000000000000FFFF26
S2140104D4FFFFFFFFFFFFFFFFFFFF0000000000001C
S2140104E40000000000000000000000000000000002
S2140104F40000000000000000000000000000FFFFF4
S214010504FFFFFFFFFFFFFFFFFFFF000000000000EB
S21401051400000000000000000000000000000000D1
S2140105240000FFFFFFFFFFFFFFFFFFFFFFFF0000CD
S21401053400000000000000000000FFFFFFFFFFFFB7
S214010544FFFFFFFFFFFF00000000000000000000A7
S2140105540000FFFFFFFFFFFFFFFFFFFFFFFF00009D
S21401056400000000000000000000FFFFFFFFFFFF87
S214010574FFFFFFFFFFFF0000000000000000000077
S2140105840000FFFFFFFFFFFFFFFFFFFFFFFF00006D
S21401059400000000FFFFFFFFFFFFFFFFFFFFFFFF5D
S2140105A4000000000000000000000000FFFFFFFF45
S2140105B4FFFFFFFFFFFFFFFF000000000000000039
S2140105C400000000FFFFFFFFFFFFFFFFFFFFFFFF2D
S2140105D4FFFFFFFFFFFF0000000000000000000017
S2140105E40000000000000000000000000000000001
S2140105F400000000000000000000000000000000F1
S21401060400000000000000000000000000000000E0
S21401061400000000000000000000000000000000D0
S21401062400000000000000000000000000000000C0
S21401063400000000000000000000000000000000B0
S21401064400000000000000000000000000000000A0
S2140106540000000000000000000000000000000090
S2140106640000000000000000000000000000000080
S2140106740000000000000000000000000000000070
S2140106840000000000000000FFFFFFFFFFFFFFFF68
S214010694FFFFFFFFFFFFFFFFFFFF0000000000005A
S2140106A4000000000000000000000000FFFFFFFF44
S2140106B4FFFFFFFFFFFFFFFF000000000000000038
S2140106C400000000FFFFFFFFFFFFFFFFFFFFFFFF2C
S2140106D40000000000000000000000000000000010
S2140106E40000000000000000FFFFFFFFFFFFFFFF08
S2140106F4FFFFFFFFFFFFFFFFFFFFFFFFFFFFFFFF00
S214010704000000000000000000000000FFFFFFFFE3
S214010714FFFFFFFFFFFFFFFF0000000000000000D7
S21401072400000000000000000000000000000000BF
S214010734000000000000FFFFFFFFFFFFFFFFFFFFB9
S214010744FFFFFFFFFFFFFFFFFFFFFFFFFFFFFFFFAF
S214010754FFFFFFFFFFFFFFFFFFFF00000000000099
S214010764000000000000000000000000000000007F
S2140107740000000000000000000000000000FFFF71
S214010784FFFFFFFFFFFFFFFFFFFFFFFFFFFFFFFF6F
S214010794FFFFFFFFFFFFFFFFFFFFFFFFFFFFFFFF5F
S2140107A4FFFFFFFFFFFFFFFF000000000000000047
S2140107B4000000000000000000000000000000002F
S2140107C4000000000000FFFFFFFFFFFFFFFFFFFF29
S2140107D4FFFFFFFFFFFFFFFFFFFFFFFFFFFF00001D
S2140107E400000000000000000000FFFFFFFFFFFF05
S2140107F4FFFFFFFFFFFF00000000000000000000F5
S21401080400000000000000000000000000000000DE
S21401081400000000FFFFFFFFFFFFFFFFFFFFFFFFDA
S214010824FFFFFFFFFFFFFFFFFFFFFFFFFFFFFFFFCE
S214010834FFFFFFFFFFFFFFFF0000000000000000B6
S21401084400000000FFFFFFFFFFFFFFFFFFFFFFFFAA
S214010854000000000000000000000000000000008E
S214010864000000000000000000000000000000007E
S214010874000000000000000000000000000000006E
S214010884000000000000000000000000000000005E
S214010894000000000000000000000000000000004E
S2140108A4000000000000000000000000000000003E
S2140108B4000000000000000000000000000000002E
S2140108C4000000000000000000000000000000001E
S2140108D4000000000000000000000000000000000E
S2140108E400000000000000000000000000000000FE
S2140108F400000000000000000000000000000000EE
S2140109040000000000000000FFFFFFFFFFFFFFFFE5
S214010914FFFFFFFFFFFFFFFFFFFF000000000000D7
S214010924000000000000000000000000FFFFFFFFC1
S214010934FFFFFFFFFFFFFFFF0000000000000000B5
S21401094400000000FFFFFFFFFFFFFFFFFFFFFFFFA9
S214010954000000000000000000000000000000008D
S2140109640000000000000000FFFFFFFFFFFFFFFF85
S214010974FFFFFFFFFFFFFFFFFFFFFFFFFFFFFFFF7D
S214010984000000000000000000000000FFFFFFFF61
S214010994FFFFFFFFFFFFFFFF000000000000000055
S2140109A4000000000000000000000000000000003D
S2140109B4000000000000FFFFFFFFFFFFFFFFFFFF37
S2140109C4FFFFFFFFFFFFFFFFFFFFFFFFFFFFFFFF2D
S2140109D4FFFFFFFFFFFFFFFFFFFF00000000000017
S2140109E400000000000000000000000000000000FD
S2140109F40000000000000000000000000000FFFFEF
S214010A04FFFFFFFFFFFFFFFFFFFFFFFFFFFFFFFFEC
S214010A14FFFFFFFFFFFFFFFFFFFFFFFFFFFFFFFFDC
S214010A24FFFFFFFFFFFFFFFF0000000000000000C4
S214010A3400000000000000000000000000000000AC
S214010A44000000000000FFFFFFFFFFFFFFFFFFFFA6
S214010A54FFFFFFFFFFFFFFFFFFFFFFFFFFFF00009A
S214010A6400000000000000000000FFFFFFFFFFFF82
S214010A74FFFFFFFFFFFF0000000000000000000072
S214010A84000000000000000000000000000000005C
S214010A9400000000FFFFFFFFFFFFFFFFFFFFFFFF58
S214010AA4FFFFFFFFFFFFFFFFFFFFFFFFFFFFFFFF4C
S214010AB4FFFFFFFFFFFFFFFF000000000000000034
S214010AC400000000FFFFFFFFFFFFFFFFFFFFFFFF28
S214010AD4000000000000000000000000000000000C
S214010AE400000000000000000000000000000000FC
S214010AF400000000000000000000000000000000EC
S214010B0400000000000000000000000000000000DB
S214010B1400000000000000000000000000000000CB
S214010B2400000000000000000000000000000000BB
S214010B3400000000000000000000000000000000AB
S214010B44000000000000000000000000000000009B
S214010B54000000000000000000000000000000008B
S214010B64000000000000000000000000000000007B
S214010B74000000000000000000000000000000006B
S214010B840000000000000000FFFFFFFFFFFFFFFF63
S214010B94FFFFFFFFFFFFFFFFFFFF00000000000055
S214010BA4000000000000000000000000FFFFFFFF3F
S214010BB4FFFFFFFFFFFFFFFF000000000000000033
S214010BC400000000FFFFFFFFFFFFFFFFFFFFFFFF27
S214010BD4000000000000000000000000000000000B
S214010BE40000000000000000FFFFFFFFFFFFFFFF03
S214010BF4FFFFFFFFFFFFFFFFFFFFFFFFFFFFFFFFFB
S214010C04000000000000000000000000FFFFFFFFDE
S214010C14FFFFFFFFFFFFFFFF0000000000000000D2
S214010C2400000000000000000000000000000000BA
S214010C34000000000000FFFFFFFFFFFFFFFFFFFFB4
S214010C44FFFFFFFFFFFFFFFFFFFFFFFFFFFFFFFFAA
S214010C54FFFFFFFFFFFFFFFFFFFF00000000000094
S214010C64000000000000000000000000000000007A
S214010C740000000000000000000000000000FFFF6C
S214010C84FFFFFFFFFFFFFFFFFFFFFFFFFFFFFFFF6A
S214010C94FFFFFFFFFFFFFFFFFFFFFFFFFFFFFFFF5A
S214010CA4FFFFFFFFFFFFFFFF000000000000000042
S214010CB4000000000000000000000000000000002A
S214010CC4000000000000FFFFFFFFFFFFFFFFFFFF24
S214010CD4FFFFFFFFFFFFFFFFFFFFFFFFFFFF000018
S214010CE400000000000000000000FFFFFFFFFFFF00
S214010CF4FFFFFFFFFFFF00000000000000000000F0
S214010D0400000000000000000000000000000000D9
S214010D1400000000FFFFFFFFFFFFFFFFFFFFFFFFD5
S214010D24FFFFFFFFFFFFFFFFFFFFFFFFFFFFFFFFC9
S214010D34FFFFFFFFFFFFFFFF0000000000000000B1
S214010D4400000000FFFFFFFFFFFFFFFFFFFFFFFFA5
S214010D540000000000000000000000000000000089
S214010D640000000000000000000000000000000079
S214010D740000000000000000000000000000000069
S214010D840000000000000000000000000000000059
S214010D940000000000000000000000000000000049
S214010DA40000000000000000000000000000000039
S214010DB40000000000000000000000000000000029
S214010DC40000000000000000000000000000000019
S214010DD40000000000000000000000000000000009
S214010DE400000000000000000000000000000000F9
S214010DF400000000000000000000000000000000E9
S214010E0400000000000000000000000000000000D8
S214010E1400000000FFFFFFFFFFFFFFFFFFFFFFFFD4
S214010E24000000000000000000000000FFFFFFFFBC
S214010E34FFFFFFFFFFFFFFFF0000000000000000B0
S214010E4400000000FFFFFFFFFFFFFFFFFFFFFFFFA4
S214010E540000000000000000000000000000000088
S214010E640000FFFFFFFFFFFFFFFFFFFFFFFF000084
S214010E7400000000FFFFFFFFFFFFFFFFFFFFFFFF74
S214010E84000000000000000000000000FFFFFFFF5C
S214010E94FFFFFFFFFFFFFFFF000000000000000050
S214010EA40000000000000000000000000000000038
S214010EB4000000000000FFFFFFFFFFFFFFFFFFFF32
S214010EC4FFFF00000000000000000000000000001A
S214010ED40000000000000000000000000000000008
S214010EE400000000000000000000000000000000F8
S214010EF40000000000000000000000000000FFFFEA
S214010F04FFFFFFFFFFFFFFFFFFFF000000000000E1
S214010F1400000000000000000000000000000000C7
S214010F240000FFFFFFFFFFFFFFFFFFFFFFFF0000C3
S214010F3400000000000000000000000000000000A7
S214010F44FFFFFFFFFFFFFFFFFFFFFFFF00000000A3
S214010F540000FFFFFFFFFFFFFFFFFFFFFFFF000093
S214010F6400000000000000000000FFFFFFFFFFFF7D
S214010F74FFFFFFFFFFFF000000000000000000006D
S214010F840000000000000000000000000000000057
S214010F9400000000FFFFFFFFFFFFFFFFFFFFFFFF53
S214010FA40000000000000000000000000000000037
S214010FB40000000000000000000000000000000027
S214010FC400000000FFFFFFFFFFFFFFFFFFFFFFFF23
S214010FD40000000000000000000000000000000007
S214010FE400000000000000000000000000000000F7
S214010FF400000000000000000000000000000000E7
S21401100400000000000000000000000000000000D6
S21401101400000000000000000000000000000000C6
S21401102400000000000000000000000000000000B6
S21401103400000000000000000000000000000000A6
S2140110440000000000000000000000000000000096
S2140110540000000000000000000000000000000086
S2140110640000000000000000000000000000000076
S2140110740000000000000000000000000000000066
S2140110840000000000000000000000000000000056
S21401109400000000FFFFFFFFFFFFFFFFFFFFFFFF52
S2140110A4000000000000000000000000FFFFFFFF3A
S2140110B4FFFFFFFFFFFFFFFF00000000000000002E
S2140110C400000000FFFFFFFFFFFFFFFFFFFFFFFF22
S2140110D40000000000000000000000000000000006
S2140110E40000FFFFFFFFFFFFFFFFFFFFFFFF000002
S2140110F400000000FFFFFFFFFFFFFFFFFFFFFFFFF2
S214011104000000000000000000000000FFFFFFFFD9
S214011114FFFFFFFFFFFFFFFF0000000000000000CD
S21401112400000000000000000000000000000000B5
S214011134000000000000FFFFFFFFFFFFFFFFFFFFAF
S214011144FFFF000000000000000000000000000097
S2140111540000000000000000000000000000000085
S2140111640000000000000000000000000000000075
S2140111740000000000000000000000000000FFFF67
S214011184FFFFFFFFFFFFFFFFFFFF0000000000005F
S2140111940000000000000000000000000000000045
S2140111A40000FFFFFFFFFFFFFFFFFFFFFFFF000041
S2140111B40000000000000000000000000000000025
S2140111C4FFFFFFFFFFFFFFFFFFFFFFFF0000000021
S2140111D40000FFFFFFFFFFFFFFFFFFFFFFFF000011
S2140111E400000000000000000000FFFFFFFFFFFFFB
S2140111F4FFFFFFFFFFFF00000000000000000000EB
S21401120400000000000000000000000000000000D4
S21401121400000000FFFFFFFFFFFFFFFFFFFFFFFFD0
S21401122400000000000000000000000000000000B4
S21401123400000000000000000000000000000000A4
S21401124400000000FFFFFFFFFFFFFFFFFFFFFFFFA0
S2140112540000000000000000000000000000000084
S2140112640000000000000000000000000000000074
S2140112740000000000000000000000000000000064
S2140112840000000000000000000000000000000054
S2140112940000000000000000000000000000000044
S2140112A40000000000000000000000000000000034
S2140112B40000000000000000000000000000000024
S2140112C40000000000000000000000000000000014
S2140112D40000000000000000000000000000000004
S2140112E400000000000000000000000000000000F4
S2140112F400000000000000000000000000000000E4
S21401130400000000000000000000000000000000D3
S21401131400000000FFFFFFFFFFFFFFFFFFFFFFFFCF
S214011324000000000000000000000000FFFFFFFFB7
S214011334FFFFFFFFFFFFFFFF0000000000000000AB
S21401134400000000FFFFFFFFFFFFFFFFFFFFFFFF9F
S2140113540000000000000000000000000000000083
S2140113640000FFFFFFFFFFFFFFFFFFFFFFFF00007F
S21401137400000000FFFFFFFFFFFFFFFFFFFFFFFF6F
S214011384000000000000000000000000FFFFFFFF57
S214011394FFFFFFFFFFFFFFFF00000000000000004B
S2140113A40000000000000000000000000000000033
S2140113B4000000000000FFFFFFFFFFFFFFFFFFFF2D
S2140113C4FFFF000000000000000000000000000015
S2140113D40000000000000000000000000000000003
S2140113E400000000000000000000000000000000F3
S2140113F40000000000000000000000000000FFFFE5
S214011404FFFFFFFFFFFFFFFFFFFF000000000000DC
S21401141400000000000000000000000000000000C2
S2140114240000FFFFFFFFFFFFFFFFFFFFFFFF0000BE
S21401143400000000000000000000000000000000A2
S214011444FFFFFFFFFFFFFFFFFFFFFFFF000000009E
S2140114540000FFFFFFFFFFFFFFFFFFFFFFFF00008E
S21401146400000000000000000000FFFFFFFFFFFF78
S214011474FFFFFFFFFFFF0000000000000000000068
S2140114840000000000000000000000000000000052
S21401149400000000FFFFFFFFFFFFFFFFFFFFFFFF4E
S2140114A40000000000000000000000000000000032
S2140114B40000000000000000000000000000000022
S2140114C400000000FFFFFFFFFFFFFFFFFFFFFFFF1E
S2140114D40000000000000000000000000000000002
S2140114E400000000000000000000000000000000F2
S2140114F400000000000000000000000000000000E2
S21401150400000000000000000000000000000000D1
S21401151400000000000000000000000000000000C1
S21401152400000000000000000000000000000000B1
S21401153400000000000000000000000000000000A1
S2140115440000000000000000000000000000000091
S2140115540000000000000000000000000000000081
S2140115640000000000000000000000000000000071
S214011574000000000000FFFFFFFFFFFFFFFFFFFF6B
S214011584FFFF000000000000000000000000000053
S21401159400000000FFFFFFFFFFFFFFFFFFFFFFFF4D
S2140115A4000000000000000000000000FFFFFFFF35
S2140115B4FFFFFFFFFFFFFFFF000000000000000029
S2140115C400000000FFFFFFFFFFFFFFFFFFFFFFFF1D
S2140115D4000000000000000000000000FFFFFFFF05
S2140115E4FFFFFFFFFFFFFFFF0000000000000000F9
S2140115F400000000FFFFFFFFFFFFFFFFFFFFFFFFED
S214011604000000000000000000000000FFFFFFFFD4
S214011614FFFFFFFFFFFFFFFF0000000000000000C8
S21401162400000000000000000000000000000000B0
S214011634000000000000FFFFFFFFFFFFFFFFFFFFAA
S214011644FFFF000000000000000000000000000092
S2140116540000000000000000000000000000000080
S2140116640000000000000000000000000000000070
S2140116740000000000000000000000000000FFFF62
S214011684FFFFFFFFFFFFFFFFFFFF0000000000005A
S2140116940000000000000000000000000000000040
S2140116A40000FFFFFFFFFFFFFFFFFFFFFFFF00003C
S2140116B400000000000000000000FFFFFFFFFFFF26
S2140116C4FFFFFFFFFFFF0000000000000000000016
S2140116D40000FFFFFFFFFFFFFFFFFFFFFFFF00000C
S2140116E400000000000000000000FFFFFFFFFFFFF6
S2140116F4FFFFFFFFFFFF00000000000000000000E6
S21401170400000000000000000000000000000000CF
S21401171400000000FFFFFFFFFFFFFFFFFFFFFFFFCB
S21401172400000000000000000000000000000000AF
S214011734000000000000000000000000000000009F
S21401174400000000FFFFFFFFFFFFFFFFFFFFFFFF9B
S214011754000000000000000000000000000000007F
S214011764000000000000000000000000000000006F
S214011774000000000000000000000000000000005F
S214011784000000000000000000000000000000004F
S214011794000000000000000000000000000000003F
S2140117A4000000000000000000000000000000002F
S2140117B4000000000000000000000000000000001F
S2140117C4000000000000000000000000000000000F
S2140117D400000000000000000000000000000000FF
S2140117E400000000000000000000000000000000EF
S2140117F4000000000000FFFFFFFFFFFFFFFFFFFFE9
S214011804FFFF0000000000000000000000000000D0
S21401181400000000FFFFFFFFFFFFFFFFFFFFFFFFCA
S214011824000000000000000000000000FFFFFFFFB2
S214011834FFFFFFFFFFFFFFFF0000000000000000A6
S21401184400000000FFFFFFFFFFFFFFFFFFFFFFFF9A
S214011854000000000000000000000000FFFFFFFF82
S214011864FFFFFFFFFFFFFFFF000000000000000076
S21401187400000000FFFFFFFFFFFFFFFFFFFFFFFF6A
S214011884000000000000000000000000FFFFFFFF52
S214011894FFFFFFFFFFFFFFFF000000000000000046
S2140118A4000000000000000000000000000000002E
S2140118B4000000000000FFFFFFFFFFFFFFFFFFFF28
S2140118C4FFFF000000000000000000000000000010
S2140118D400000000000000000000000000000000FE
S2140118E400000000000000000000000000000000EE
S2140118F40000000000000000000000000000FFFFE0
S214011904FFFFFFFFFFFFFFFFFFFF000000000000D7
S21401191400000000000000000000000000000000BD
S2140119240000FFFFFFFFFFFFFFFFFFFFFFFF0000B9
S21401193400000000000000000000FFFFFFFFFFFFA3
S214011944FFFFFFFFFFFF0000000000000000000093
S2140119540000FFFFFFFFFFFFFFFFFFFFFFFF000089
S21401196400000000000000000000FFFFFFFFFFFF73
S214011974FFFFFFFFFFFF0000000000000000000063
S214011984000000000000000000000000000000004D
S21401199400000000FFFFFFFFFFFFFFFFFFFFFFFF49
S2140119A4000000000000000000000000000000002D
S2140119B4000000000000000000000000000000001D
S2140119C400000000FFFFFFFFFFFFFFFFFFFFFFFF19
S2140119D400000000000000000000000000000000FD
S2140119E400000000000000000000000000000000ED
S2140119F400000000000000000000000000000000DD
S214011A0400000000000000000000000000000000CC
S214011A1400000000000000000000000000000000BC
S214011A2400000000000000000000000000000000AC
S214011A34000000000000000000000000000000009C
S214011A44000000000000000000000000000000008C
S214011A54000000000000000000000000000000007C
S214011A64000000000000000000000000000000006C
S214011A74000000000000FFFFFFFFFFFFFFFFFFFF66
S214011A84FFFF00000000000000000000000000004E
S214011A9400000000FFFFFFFFFFFFFFFFFFFFFFFF48
S214011AA4000000000000000000000000FFFFFFFF30
S214011AB4FFFFFFFFFFFFFFFF000000000000000024
S214011AC400000000FFFFFFFFFFFFFFFFFFFFFFFF18
S214011AD4000000000000000000000000FFFFFFFF00
S214011AE4FFFFFFFFFFFFFFFF0000000000000000F4
S214011AF400000000FFFFFFFFFFFFFFFFFFFFFFFFE8
S214011B04000000000000000000000000FFFFFFFFCF
S214011B14FFFFFFFFFFFFFFFF0000000000000000C3
S214011B2400000000000000000000000000000000AB
S214011B34000000000000FFFFFFFFFFFFFFFFFFFFA5
S214011B44FFFF00000000000000000000000000008D
S214011B54000000000000000000000000000000007B
S214011B64000000000000000000000000000000006B
S214011B740000000000000000000000000000FFFF5D
S214011B84FFFFFFFFFFFFFFFFFFFF00000000000055
S214011B94000000000000000000000000000000003B
S214011BA40000FFFFFFFFFFFFFFFFFFFFFFFF000037
S214011BB400000000000000000000FFFFFFFFFFFF21
S214011BC4FFFFFFFFFFFF0000000000000000000011
S214011BD40000FFFFFFFFFFFFFFFFFFFFFFFF000007
S214011BE400000000000000000000FFFFFFFFFFFFF1
S214011BF4FFFFFFFFFFFF00000000000000000000E1
S214011C0400000000000000000000000000000000CA
S214011C1400000000FFFFFFFFFFFFFFFFFFFFFFFFC6
S214011C2400000000000000000000000000000000AA
S214011C34000000000000000000000000000000009A
S214011C4400000000FFFFFFFFFFFFFFFFFFFFFFFF96
S214011C54000000000000000000000000000000007A
S214011C64000000000000000000000000000000006A
S214011C74000000000000000000000000000000005A
S214011C84000000000000000000000000000000004A
S214011C94000000000000000000000000000000003A
S214011CA4000000000000000000000000000000002A
S214011CB4000000000000000000000000000000001A
S214011CC4000000000000000000000000000000000A
S214011CD400000000000000000000000000000000FA
S214011CE400000000000000000000000000000000EA
S214011CF4000000000000FFFFFFFFFFFFFFFFFFFFE4
S214011D04FFFF0000000000000000000000000000CB
S214011D1400000000FFFFFFFFFFFFFFFFFFFFFFFFC5
S214011D24000000000000000000000000FFFFFFFFAD
S214011D34FFFFFFFFFFFFFFFF0000000000000000A1
S214011D4400000000FFFFFFFFFFFFFFFFFFFFFFFF95
S214011D54000000000000000000000000FFFFFFFF7D
S214011D64FFFFFFFFFFFFFFFF000000000000000071
S214011D7400000000FFFFFFFFFFFFFFFFFFFFFFFF65
S214011D84000000000000000000000000FFFFFFFF4D
S214011D94FFFFFFFFFFFFFFFF000000000000000041
S214011DA400000000FFFFFFFFFFFFFFFFFFFFFFFF35
S214011DB4000000000000FFFFFFFFFFFFFFFFFFFF23
S214011DC4FFFF000000000000000000000000FFFF0D
S214011DD4FFFFFFFFFFFFFFFFFFFF00000000000003
S214011DE400000000000000000000000000000000E9
S214011DF40000000000000000000000000000FFFFDB
S214011E04FFFFFFFFFFFFFFFFFFFF000000000000D2
S214011E1400000000000000000000000000000000B8
S214011E240000FFFFFFFFFFFFFFFFFFFFFFFF0000B4
S214011E3400000000000000000000FFFFFFFFFFFF9E
S214011E44FFFFFFFFFFFF000000000000000000008E
S214011E540000FFFFFFFFFFFFFFFFFFFFFFFF000084
S214011E6400000000000000000000FFFFFFFFFFFF6E
S214011E74FFFFFFFFFFFF000000000000000000005E
S214011E840000FFFFFFFFFFFFFFFFFFFFFFFF000054
S214011E9400000000FFFFFFFFFFFFFFFFFFFFFFFF44
S214011EA4000000000000000000000000FFFFFFFF2C
S214011EB4FFFFFFFFFFFFFFFF000000000000000020
S214011EC400000000FFFFFFFFFFFFFFFFFFFFFFFF14
S214011ED400000000000000000000000000000000F8
S214011EE400000000000000000000000000000000E8
S214011EF400000000000000000000000000000000D8
S214011F0400000000000000000000000000000000C7
S214011F1400000000000000000000000000000000B7
S214011F2400000000000000000000000000000000A7
S214011F340000000000000000000000000000000097
S214011F440000000000000000000000000000000087
S214011F540000000000000000000000000000000077
S214011F640000000000000000000000000000000067
S214011F74000000000000FFFFFFFFFFFFFFFFFFFF61
S214011F84FFFF000000000000000000000000000049
S214011F9400000000FFFFFFFFFFFFFFFFFFFFFFFF43
S214011FA4000000000000000000000000FFFFFFFF2B
S214011FB4FFFFFFFFFFFFFFFF00000000000000001F
S214011FC400000000FFFFFFFFFFFFFFFFFFFFFFFF13
S214011FD4000000000000000000000000FFFFFFFFFB
S214011FE4FFFFFFFFFFFFFFFF0000000000000000EF
S214011FF400000000FFFFFFFFFFFFFFFFFFFFFFFFE3
S214012004000000000000000000000000FFFFFFFFCA
S214012014FFFFFFFFFFFFFFFF0000000000000000BE
S21401202400000000FFFFFFFFFFFFFFFFFFFFFFFFB2
S214012034000000000000FFFFFFFFFFFFFFFFFFFFA0
S214012044FFFF000000000000000000000000FFFF8A
S214012054FFFFFFFFFFFFFFFFFFFF00000000000080
S2140120640000000000000000000000000000000066
S2140120740000000000000000000000000000FFFF58
S214012084FFFFFFFFFFFFFFFFFFFF00000000000050
S2140120940000000000000000000000000000000036
S2140120A40000FFFFFFFFFFFFFFFFFFFFFFFF000032
S2140120B400000000000000000000FFFFFFFFFFFF1C
S2140120C4FFFFFFFFFFFF000000000000000000000C
S2140120D40000FFFFFFFFFFFFFFFFFFFFFFFF000002
S2140120E400000000000000000000FFFFFFFFFFFFEC
S2140120F4FFFFFFFFFFFF00000000000000000000DC
S2140121040000FFFFFFFFFFFFFFFFFFFFFFFF0000D1
S21401211400000000FFFFFFFFFFFFFFFFFFFFFFFFC1
S214012124000000000000000000000000FFFFFFFFA9
S214012134FFFFFFFFFFFFFFFF00000000000000009D
S21401214400000000FFFFFFFFFFFFFFFFFFFFFFFF91
S2140121540000000000000000000000000000000075
S2140121640000000000000000000000000000000065
S2140121740000000000000000000000000000000055
S2140121840000000000000000000000000000000045
S2140121940000000000000000000000000000000035
S2140121A40000000000000000000000000000000025
S2140121B40000000000000000000000000000000015
S2140121C40000000000000000000000000000000005
S2140121D400000000000000000000000000000000F5
S2140121E400000000000000000000000000000000E5
S2140121F4000000000000FFFFFFFFFFFFFFFFFFFFDF
S214012204FFFF0000000000000000000000000000C6
S21401221400000000FFFFFFFFFFFFFFFFFFFFFFFFC0
S214012224000000000000000000000000FFFFFFFFA8
S214012234FFFFFFFFFFFFFFFF00000000000000009C
S21401224400000000FFFFFFFFFFFFFFFFFFFFFFFF90
S214012254000000000000000000000000FFFFFFFF78
S214012264FFFFFFFFFFFFFFFF00000000000000006C
S21401227400000000FFFFFFFFFFFFFFFFFFFFFFFF60
S214012284000000000000000000000000FFFFFFFF48
S214012294FFFFFFFFFFFFFFFF00000000000000003C
S2140122A400000000FFFFFFFFFFFFFFFFFFFFFFFF30
S2140122B4000000000000FFFFFFFFFFFFFFFFFFFF1E
S2140122C4FFFF000000000000000000000000FFFF08
S2140122D4FFFFFFFFFFFFFFFFFFFF000000000000FE
S2140122E400000000000000000000000000000000E4
S2140122F40000000000000000000000000000FFFFD6
S214012304FFFFFFFFFFFFFFFFFFFF000000000000CD
S21401231400000000000000000000000000000000B3
S2140123240000FFFFFFFFFFFFFFFFFFFFFFFF0000AF
S21401233400000000000000000000FFFFFFFFFFFF99
